:100000000C9464000C948C000C948C000C948C0068
:100010000C948C000C948C000C948C000C948C0030
:100020000C948C000C948C000C948C000C948C0020
:100030000C948C000C948C000C948C000C948C0010
:100040000C9467050C948C000C94A4060C94F60692
:100050000C948C000C948C000C948C000C948C00F0
:100060000C948C000C948C000000000024002700ED
:100070002A0000000000250028002B0000000000DE
:1000800023002600290004040404040404040202DA
:100090000202020203030303030301020408102007
:1000A0004080010204081020010204081020000012
:1000B0000007000201000003040600000000000029
:1000C0000000140267080D0211241FBECFEFD8E014
:1000D000DEBFCDBF11E0A0E0B1E0EAE6F7E102C08B
:1000E00005900D92AC31B107D9F711E0ACE1B1E068
:1000F00001C01D92AF3FB107E1F710E0C6ECD0E0C0
:1001000004C02297FE010E946D0BC23CD107C9F7C3
:100110000E94BE080C94A80B0C940000A0E0B0E074
:10012000E4E9F0E00C94790BEC01A880B980CA8076
:10013000DB80A114B104C104D10441F484E2A82EEF
:1001400089EDB82E8BE5C82E87E0D82EC601B50103
:100150002DE133EF41E050E00E94500B27EA31E4FB
:1001600040E050E00E94E80A7B018C01C601B50125
:100170002DE133EF41E050E00E94500BCA01B9017C
:100180002CEE34EF4FEF5FEF0E94E80A6E0D7F1DFB
:10019000801F911F97FF04C06150704080409048BD
:1001A000688379838A839B839B01AC015F77B90164
:1001B000CA01CDB7DEB7EAE00C94950B0E948E0021
:1001C000089580E091E00E948E0008956093000100
:1001D0007093010180930201909303010895DC0163
:1001E00001C06D9341505040E0F70895CF92DF92E7
:1001F000EF920F936C01FC0185899689FB01E89FC2
:10020000B001E99F700DF89F700D1124640F751FE8
:10021000C601422F202F0E2D0E944F02C6010E94C0
:1002200012030F91EF90DF90CF900895CF92DF925D
:10023000EF92FF920F931F93CF93DF938C017B017B
:10024000D82EC12EC0E0D0E012C0E89EB001E99ED9
:10025000700DF89E700D11246C0F7D1F8D2D9C2D3F
:1002600020E030E040E050E00E94A3022196F80137
:1002700085899689C817D90740F38D2D9C2D0E943A
:100280001203DF91CF911F910F91FF90EF90DF90BC
:10029000CF9008958F929F92AF92BF92CF92DF92AC
:1002A000EF92FF920F931F93CF93DF935C014B016B
:1002B0007A010E94160100E010E0C801B7010E9417
:1002C000CF0920E030E040E85AE30E94850A7B0134
:1002D0008C01F501658976896150704080E090E07D
:1002E0000E94CF099B01AC01C801B7010E94850A99
:1002F0007B018C0120E030E040E050E00E94810A68
:1003000088234CF0C801B70120E030E040E05FE313
:100310000E943A0908C0C801B70120E030E040E07F
:100320005FE30E9439090E949E096B01C0E0D0E0A2
:10033000C501B401AE0120E030E001E010E0E1E0F1
:10034000EE2EF12C0E94F6002196CC16DD0680F7E9
:10035000DF91CF911F910F91FF90EF90DF90CF90A1
:10036000BF90AF909F908F900895DF93CF93CDB7BC
:10037000DEB763970FB6F894DEBF0FBECDBF8130F6
:100380009105A9F56F5F7F4F09F03EC060910401B0
:10039000709105018CE191E046E023E00E94E503C5
:1003A000DE011196ECE1F1E083E101900D928150C4
:1003B000E1F7AFE2B1E0FE01319683E101900D92E9
:1003C0008150E1F78AE090E09093430180934201ED
:1003D00088E090E0909345018093440180E590E0AF
:1003E0009093470180934601CE0101960BC0892B63
:1003F00059F46F5F7F4F41F48FE291E00E94D50383
:100400008CE191E00E94D50363960FB6F894DEBFAD
:100410000FBECDBFCF91DF91089580E090E06FEFE8
:100420007FEF0E94B501089581E090E06FEF7FEFCC
:100430000E94B5010895CF93DF93C0E0D0E060E063
:1004400070E080E090E020E034E040E050E00E9486
:100450001B099B01AC018FE291E0BE01A9010E9442
:100460004A012196CA30D10551F7DF91CF91089505
:1004700089ED91E040E855E260E070E00E943107CC
:1004800089ED91E00E9465088823D1F38CE191E029
:100490000E9402038CE191E00E94120308950F93E1
:1004A000CF93DF93EC01522F8881998168177907E8
:1004B00008F045C02D81222359F130E0842F90E0CF
:1004C000FC01E29FC001E39F900DF29F900D11246B
:1004D000892F990F990B482F852F90E0FC01E29FFF
:1004E000C001E39F900DF29F900D1124892F990F69
:1004F000990B582F802F90E0FC01E29FC001E39FF1
:10050000900DF29F900D1124892F990F990B082FB0
:10051000CB01880F991F860F971FEE81FF81E80F8F
:10052000F91F8885DF01A80FB11D4C938985DF0174
:10053000A80FB11D5C938A85E80FF11D0083DF9140
:10054000CF910F9108950F931F93CF93DF93EC01F9
:10055000888199816817790708F04FC0CA01AA27D6
:10056000BB27182FBB27A52F942F832F082F422F8F
:100570002D81222359F130E0812F90E0FC01E29F90
:10058000C001E39F900DF29F900D1124892F990FC8
:10059000990B182F802F90E0FC01E29FC001E39F90
:1005A000900DF29F900D1124892F990F990B082F10
:1005B000842F90E0AC01429FC001439F900D529F59
:1005C000900D1124892F990F990B482FCB01880F7B
:1005D000991F860F971FEE81FF81E80FF91F88850D
:1005E000DF01A80FB11D1C938985DF01A80FB11D84
:1005F0000C938A85E80FF11D4083DF91CF911F9105
:100600000F9108950F931F938C01FC01848161E089
:100610000E941006F801848160E00E944F061F913D
:100620000F910895EF92FF920F931F93DF93CF9353
:10063000CDB7DEB727970FB6F894DEBF0FBECDBF9C
:100640008C01DC0116968D919C911797892B09F4EA
:100650009FC00E94AF05F8012485358546855785E2
:10066000621B730B840B950B623371058105910539
:1006700080F3F894D80112968D919C9113979F83E3
:100680008E831696ED90FC901797F70181917F016C
:1006900089831B968C911B975096ED91FC915197F5
:1006A00052969C9181FF30C08081892B8A83808102
:1006B000909598239B838B818D8388E08C836A81BE
:1006C0005B8129813C814D818E819F81D70160832F
:1006D00027FD462F3A954083452F39F0221F00C051
:1006E00000005083000000C0F2CF38E02D9150830D
:1006F0000000019761F7D8015196FC93EE93509753
:1007000029833C834D833AC08081892B8A838081F1
:10071000909598239B838B818C8388E08D836A815D
:100720005B8129813D814C818E819F81D7016083CE
:1007300027FD462F00C000C0408300C000C000C09D
:1007400000C000C050830000452F3A9541F0221FA1
:10075000000000C000C000C000C000C0E8CF38E00A
:100760002D9100C0508300C0019709F7D801519620
:10077000FC93EE93509729833D834C839F838E8314
:1007800078940E94AF05F8016487758786879787FC
:1007900027960FB6F894DEBF0FBECDBFCF91DF9185
:1007A0001F910F91FF90EF900895CF93DF93EC018D
:1007B0008E819F81009711F00E94CF048C8160E0B0
:1007C0000E941006DF91CF9108951F93CF93DF937E
:1007D000EC01122F79836883CB01880F991F860F54
:1007E000971F9B838A834C831D821F821E822B87C7
:1007F0001C861D861E861F8650E0FA01EA57FF4FB1
:10080000E491F0E0EE0FFF1FEE58FF4F2591349179
:10081000398B288B46565F4FFA0144914A8B0E94D0
:1008200032049F838E83009731F04A815B8160E0C0
:1008300070E00E94EF0010FF04C081E088871986F5
:100840000BC012FF06C081E0888782E089871A8684
:1008500005C0188681E0898782E08A87DF91CF9181
:100860001F9108950F931F93CF93DF93BC018230A4
:10087000910510F462E070E0E091FD01F091FE015D
:10088000A0E0B0E040E050E024C080819181861774
:100890009707D0F08617970771F48281938110979C
:1008A00029F013969C938E9312972CC09093FE017F
:1008B0008093FD0127C04115510519F08417950754
:1008C00018F4EF018D01AC01DF01828193819C015D
:1008D000F9013097D1F641155105F9F0CA01861B8F
:1008E000970B8430910580F48A819B810115110555
:1008F00021F0F8019383828304C09093FE018093DA
:10090000FD01FE01329645C0FE01E80FF91F61931B
:1009100071930297998388833CC08091FB019091E9
:10092000FC01892B41F48091080190910901909379
:10093000FC018093FB0140910A0150910B0141158C
:10094000510541F44DB75EB78091060190910701C2
:10095000481B590B2091FB013091FC0124173507EE
:10096000B0F4CA01821B930B8617970780F0AB0186
:100970004E5F5F4F8417950750F0420F531F5093FF
:10098000FC014093FB01F9016193719302C0E0E027
:10099000F0E0CF01DF91CF911F910F910895CF9398
:1009A000DF939C01009709F48FC0EC0122971B8212
:1009B0001A826091FD017091FE016115710581F44B
:1009C00088819981820F931F2091FB013091FC0156
:1009D0002817390739F5D093FC01C093FB0174C087
:1009E000DB0140E050E0AC17BD0708F1BB83AA83F0
:1009F000FE0121913191E20FF31FAE17BF0779F489
:100A00008D919C911197280F391F2E5F3F4F39838D
:100A1000288312968D919C9113979B838A8341150D
:100A2000510571F4D093FE01C093FD014DC01296A3
:100A30008D919C911397AD01009711F0DC01D3CFFC
:100A4000DA011396DC93CE931297FA01219131913A
:100A5000E20FF31FCE17DF0769F488819981280F11
:100A6000391F2E5F3F4FFA01318320838A819B819A
:100A700093838283E0E0F0E0DB0112968D919C91FC
:100A80001397009719F0BC01FD01F6CFAB014E5F43
:100A90005F4FDB018D919C91840F951F2091FB018D
:100AA0003091FC012817390779F4309729F4109216
:100AB000FE011092FD0102C013821282425050408A
:100AC0005093FC014093FB01DF91CF9108951F9259
:100AD0000F920FB60F9211242F933F938F939F93F2
:100AE000AF93BF9380914C0190914D01A0914E0125
:100AF000B0914F01309150010196A11DB11D232FDE
:100B00002D5F2D3720F02D570196A11DB11D20938B
:100B1000500180934C0190934D01A0934E01B093EE
:100B20004F018091480190914901A0914A01B091F3
:100B30004B010196A11DB11D80934801909349017D
:100B4000A0934A01B0934B01BF91AF919F918F91B8
:100B50003F912F910F900FBE0F901F9018959FB748
:100B6000F894209148013091490140914A015091F7
:100B70004B0186B5A89B06C08F3F21F02F5F3F4FEA
:100B80004F4F5F4F9FBF542F432F322F2227280FE5
:100B9000311D411D511D82E0220F331F441F551F7F
:100BA0008A95D1F7B901CA010895789484B5826015
:100BB00084BD84B5816084BD85B5826085BD85B501
:100BC000816085BDEEE6F0E0808181608083E1E8B0
:100BD000F0E01082808182608083808181608083E8
:100BE000E0E8F0E0808181608083E1EBF0E08081EB
:100BF00084608083E0EBF0E0808181608083EAE7BD
:100C0000F0E0808184608083808182608083808145
:100C1000816080838081806880831092C100089504
:100C2000CF93DF93482F50E0CA0186569F4FFC01B7
:100C300034914A575F4FFA018491882369F190E01B
:100C4000880F991FFC01E859FF4FA591B491FC0151
:100C5000EE58FF4FC591D491662351F42FB7F89405
:100C60008C91932F909589238C93888189230BC035
:100C7000623061F42FB7F8948C91932F909589236B
:100C80008C938881832B88832FBF06C09FB7F894ED
:100C90008C91832B8C939FBFDF91CF910895482F28
:100CA00050E0CA0182559F4FFC012491CA0186562B
:100CB0009F4FFC0194914A575F4FFA0134913323BF
:100CC00009F440C0222351F1233071F0243028F47C
:100CD0002130A1F0223011F514C02630B1F02730B8
:100CE000C1F02430D9F404C0809180008F7703C014
:100CF000809180008F7D8093800010C084B58F77B5
:100D000002C084B58F7D84BD09C08091B0008F770B
:100D100003C08091B0008F7D8093B000E32FF0E09E
:100D2000EE0FFF1FEE58FF4FA591B4912FB7F89427
:100D3000662321F48C919095892302C08C91892B94
:100D40008C932FBF089508951F920F920FB60F92A4
:100D500011242F933F934F938F939F93EF93FF9380
:100D60008091C00082FD1DC04091C600209191017C
:100D7000309192012F5F3F4F2F733070809193011C
:100D8000909194012817390771F0E0919101F09149
:100D90009201EF5AFE4F40833093920120939101CC
:100DA00002C08091C600FF91EF919F918F914F916A
:100DB0003F912F910F900FBE0F901F901895E091CB
:100DC000E501F091E601E05CFF4F81919191208176
:100DD0003181805C9F4F821B930B60E470E00E9426
:100DE0001B0B892B11F00E94A30608951F920F92EE
:100DF0000FB60F9211242F933F938F939F93EF93EE
:100E0000FF932091D5013091D6018091D701909127
:100E1000D8012817390731F48091C1008F7D809364
:100E2000C10014C0E091D701F091D801EB56FE4FFC
:100E300020818091D7019091D80101968F73907095
:100E40009093D8018093D7012093C600FF91EF9132
:100E50009F918F913F912F910F900FBE0F901F90F8
:100E60001895AF92BF92DF92EF92FF920F931F936C
:100E7000CF93DF93EC017A018B01DD24403081EECA
:100E8000580780E0680780E0780711F0DD24D394EC
:100E900091E0A92EB12CEC89FD89DD2069F0C50116
:100EA00008A002C0880F991F0A94E2F7808360E0CF
:100EB00079E08DE390E005C0108260E874E88EE18F
:100EC00090E0A80197010E942E0B21503040404035
:100ED0005040569547953795279580E12030380743
:100EE00020F0DD2011F0DD24D6CFE889F9893083A8
:100EF000EA89FB89208319A2EE89FF89408121E0DC
:100F000030E0C9010C8C02C0880F991F0A94E2F7E7
:100F1000482B4083EE89FF894081C9010D8C02C0B6
:100F2000880F991F0A94E2F7482B4083EE89FF89C6
:100F30004081C9010E8C02C0880F991F0A94E2F704
:100F4000482B4083EE89FF8980810F8C02C0220FDD
:100F5000331F0A94E2F7209528232083DF91CF9155
:100F60001F910F91FF90EF90DF90BF90AF90089589
:100F7000DC011C96ED91FC911D97E05CFF4F819187
:100F8000919120813181805C9F4F821B930B60E4A3
:100F900070E00E941B0B0895DC011C96ED91FC9102
:100FA0001D97E05CFF4F20813181E054F040DF016C
:100FB000AE5BBF4F8D919C9111972817390719F49B
:100FC0002FEF3FEF07C08D919C91E80FF91F8081B3
:100FD000282F30E0C9010895DC011C96ED91FC91A9
:100FE0001D97E05CFF4F20813181E054F040DF012C
:100FF000AE5BBF4F8D919C9111972817390719F45B
:101000002FEF3FEF10C08D919C911197E80FF91FC2
:1010100020818D919C91119701968F7390701196FC
:101020009C938E9330E0C9010895DC0191968C91D8
:101030009197882339F05496ED91FC9155978081D2
:1010400086FFF9CF91961C920895CF93DF93EC0120
:10105000EE85FF85E05CFF4F20813181E054F04058
:101060002F5F3F4F2F733070DF01AE5BBF4F8D910D
:101070009C91119728173907D1F3E05CFF4F8081CD
:101080009181E054F040E80FF91F6083EE85FF8501
:10109000E05CFF4F31832083EE89FF89208181E06E
:1010A00090E00F8C02C0880F991F0A94E2F7282B5A
:1010B000208381E089A3EC89FD898081806480831D
:1010C00081E090E0DF91CF91089581E00895109242
:1010D000DC011092DB0188EE93E0A0E0B0E08093A9
:1010E000DD019093DE01A093DF01B093E00180E188
:1010F00091E09093DA018093D90181E591E090939A
:10110000E6018093E50185E991E09093E801809301
:10111000E70185EC90E09093EA018093E90184EC8B
:1011200090E09093EC018093EB0180EC90E0909341
:10113000EE018093ED0181EC90E09093F0018093BB
:10114000EF0182EC90E09093F2018093F10186EC44
:1011500090E09093F4018093F30184E08093F50193
:1011600083E08093F60187E08093F70185E0809328
:10117000F80181E08093F90108950895CF93DF93FA
:101180000E94D5050E94BD080E943802CFEDD6E02E
:101190000E941B022097E1F30E94DF06F9CFCF9255
:1011A000DF92EF92FF920F931F93CF93DF937C0117
:1011B0006B018A01C0E0D0E00FC0D6016D916D01D6
:1011C000D701ED91FC910190F081E02DC7010995C7
:1011D000C80FD91F015010400115110571F7CE013C
:1011E000DF91CF911F910F91FF90EF90DF90CF9003
:1011F0000895EF92FF920F931F937B018C0161156D
:1012000071058105910529F420E030E040E050E0CF
:101210000BC00E94E100A80197010E94500BAC0195
:10122000CB01DA019C01AD01B901CA011F910F91F7
:10123000FF90EF900895EF92FF920F931F937B0121
:101240008C01621773078407950764F4261B370B1C
:10125000480B590BCA01B9010E94F908E60EF71EA6
:10126000081F191FB701C8011F910F91FF90EF9040
:1012700008955058BB27AA270ED009C1FAD030F0E4
:10128000FFD020F031F49F3F11F41EF4EFC00EF4B4
:10129000E095E7FBE5C0E92F0BD180F3BA176207B1
:1012A00073078407950718F071F49EF523C10EF4B7
:1012B000E0950B2EBA2FA02D0B01B90190010C0166
:1012C000CA01A0011124FF27591B99F0593F50F47E
:1012D000503E68F11A16F040A22F232F342F4427D6
:1012E000585FF3CF469537952795A795F0405395CE
:1012F000C9F77EF41F16BA0B620B730B840BBAF09E
:101300009150A1F0FF0FBB1F661F771F881FC2F708
:101310000EC0BA0F621F731F841F48F4879577951C
:101320006795B795F7959E3F08F0B3CF9395880FD3
:1013300008F09927EE0F97958795089504D0689443
:10134000B111D9C00895BCD088F09F5790F0B92F43
:101350009927B751A0F0D1F0660F771F881F991F0A
:101360001AF0BA95C9F712C0B13081F0C3D0B1E01C
:101370000895C0C0672F782F8827B85F39F0B93F2C
:10138000CCF3869577956795B395D9F73EF490950C
:101390008095709561957F4F8F4F9F4F0895E8948A
:1013A00009C097FB3EF490958095709561957F4FAD
:1013B0008F4F9F4F9923A9F0F92F96E9BB2793955B
:1013C000F695879577956795B795F111F8CFFAF46B
:1013D000BB0F11F460FF1BC06F5F7F4F8F4F9F4F9C
:1013E00016C0882311F096E911C0772321F09EE8FA
:1013F000872F762F05C0662371F096E8862F70E060
:1014000060E02AF09A95660F771F881FDAF7880F39
:101410009695879597F90895990F0008550FAA0B8F
:10142000E0E8FEEF16161706E807F907C0F01216F7
:101430001306E407F50798F0621B730B840B950BFA
:1014400039F40A2661F0232B242B252B21F408954F
:101450000A2609F4A140A6958FEF811D811D0895EC
:1014600097F99F6780E870E060E008959FEF80EC57
:10147000089500240A9416161706180609060895FA
:1014800000240A9412161306140605060895092E60
:101490000394000C11F4882352F0BB0F40F4BF2BCF
:1014A00011F460FF04C06F5F7F4F8F4F9F4F08950F
:1014B00057FD9058440F551F59F05F3F71F0479505
:1014C000880F97FB991F61F09F3F79F087950895EA
:1014D000121613061406551FF2CF4695F1DF08C009
:1014E000161617061806991FF1CF86957105610526
:1014F00008940895E894BB2766277727CB0197F9CE
:1015000008958ADF08F48FEF08950BD0C0CFB1DFC4
:1015100028F0B6DF18F0952309F0A2CFA7CF112449
:10152000EACFC6DFA0F3959FD1F3950F50E0551F8A
:10153000629FF001729FBB27F00DB11D639FAA2728
:10154000F00DB11DAA1F649F6627B00DA11D661F77
:10155000829F2227B00DA11D621F739FB00DA11D98
:10156000621F839FA00D611D221F749F3327A00D52
:10157000611D231F849F600D211D822F762F6A2FEE
:1015800011249F5750408AF0E1F088234AF0EE0F73
:10159000FF1FBB1F661F771F881F91505040A9F780
:1015A0009E3F510570F05CCFA6CF5F3FECF3983EB5
:1015B000DCF3869577956795B795F795E7959F5FE7
:1015C000C1F7FE2B880F911D9695879597F9089581
:1015D000629FD001739FF001829FE00DF11D649F17
:1015E000E00DF11D929FF00D839FF00D749FF00DA3
:1015F000659FF00D9927729FB00DE11DF91F639F44
:10160000B00DE11DF91FBD01CF0111240895AA1BE2
:10161000BB1B51E107C0AA1FBB1FA617B70710F0DD
:10162000A61BB70B881F991F5A95A9F7809590950F
:10163000BC01CD01089597FB092E07260AD077FD3E
:1016400004D0E5DF06D000201AF4709561957F4F35
:101650000895F6F7909581959F4F0895A1E21A2E6F
:10166000AA1BBB1BFD010DC0AA1FBB1FEE1FFF1F46
:10167000A217B307E407F50720F0A21BB30BE40B96
:10168000F50B661F771F881F991F1A9469F76095DD
:101690007095809590959B01AC01BD01CF01089597
:1016A00097FB092E05260ED057FD04D0D7DF0AD0B0
:1016B000001C38F450954095309521953F4F4F4F81
:1016C0005F4F0895F6F790958095709561957F4FDF
:1016D0008F4F9F4F0895EE0FFF1F0590F491E02D5F
:1016E00009942F923F924F925F926F927F928F92C6
:1016F0009F92AF92BF92CF92DF92EF92FF920F93A1
:101700001F93CF93DF93CDB7DEB7CA1BDB0B0FB6AA
:10171000F894DEBF0FBECDBF09942A883988488867
:101720005F846E847D848C849B84AA84B984C884FD
:10173000DF80EE80FD800C811B81AA81B981CE0FF4
:10174000D11D0FB6F894DEBF0FBECDBFED010895D9
:1017500010E0C6ECD0E004C0FE010E946D0B2296A2
:0A176000C83CD107C9F7F894FFCF89
:10176A000100000050008000FF010000000000009E
:0C177A002508CF08B807EC07CC071508BD
:00000001FF
