:100000000C9463000C948B000C948B000C948B006C
:100010000C948B000C948B000C948B000C948B0034
:100020000C948B000C948B000C948B000C948B0024
:100030000C948B000C948B000C948B000C948B0014
:100040000C948D030C948B000C948B000C948B00FF
:100050000C948B000C948B000C948B000C948B00F4
:100060000C948B000C948B000000000024002700EF
:100070002A0000000000250028002B0000000000DE
:1000800023002600290004040404040404040202DA
:100090000202020203030303030301020408102007
:1000A0004080010204081020010204081020000012
:1000B0000007000201000003040600000000000029
:1000C0000000B400AD0011241FBECFEFD4E0DEBFAE
:1000D000CDBF11E0A0E0B1E0ECEDF9E002C0059089
:1000E0000D92A630B107D9F711E0A6E0B1E001C04A
:1000F0001D92A632B107E1F710E0C4ECD0E004C0D5
:100100002297FE010E94DD04C23CD107C9F70E947C
:10011000CA040C94E1040C940000DC0101C06D934E
:1001200041505040E0F708958130910561F46F5FD0
:100130007F4F91F486E091E060E570E046E023E0D7
:100140000E940B020895892B39F46F5F7F4F21F4D1
:1001500086E091E00E94FB01089580E090E06FEF5F
:100160007FEF0E949400089581E090E06FEF7FEFB1
:100170000E94940008950F9386E091E060E070E0A3
:100180004FEF20E000E00E94D4000F9108950F93FC
:100190001F9306E011E0C8010E942801C8010E94D7
:1001A00038011F910F9108950F93CF93DF93EC01C6
:1001B000522F888199816817790708F045C02D81F1
:1001C000222359F130E0842F90E0FC01E29FC0012E
:1001D000E39F900DF29F900D1124892F990F990B99
:1001E000482F852F90E0FC01E29FC001E39F900D16
:1001F000F29F900D1124892F990F990B582F802F62
:1002000090E0FC01E29FC001E39F900DF29F900DF2
:100210001124892F990F990B082FCB01880F991F53
:10022000860F971FEE81FF81E80FF91F8885DF0198
:10023000A80FB11D4C938985DF01A80FB11D5C93F8
:100240008A85E80FF11D0083DF91CF910F9108950A
:100250000F931F938C01FC01848161E00E9436049E
:10026000F801848160E00E9475041F910F91089548
:10027000EF92FF920F931F93DF93CF93CDB7DEB72B
:1002800027970FB6F894DEBF0FBECDBF8C01DC01FF
:1002900016968D919C911797892B09F49FC00E9407
:1002A000D503F8012485358546855785621B730B78
:1002B000840B950B623371058105910580F3F894E9
:1002C000D80112968D919C9113979F838E831696D9
:1002D000ED90FC901797F70181917F0189831B9620
:1002E0008C911B975096ED91FC91519752969C9151
:1002F00081FF30C08081892B8A83808190959823EB
:100300009B838B818D8388E08C836A815B812981CB
:100310003C814D818E819F81D701608327FD462FCF
:100320003A954083452F39F0221F00C000005083CA
:10033000000000C0F2CF38E02D91508300000197FB
:1003400061F7D8015196FC93EE93509729833C8333
:100350004D833AC08081892B8A8380819095982330
:100360009B838B818C8388E08D836A815B8129816B
:100370003D814C818E819F81D701608327FD462F6F
:1003800000C000C0408300C000C000C000C000C06A
:1003900050830000452F3A9541F0221F000000C015
:1003A00000C000C000C000C0E8CF38E02D9100C000
:1003B000508300C0019709F7D8015196FC93EE9342
:1003C000509729833D834C839F838E8378940E942A
:1003D000D503F801648775878687978727960FB6B8
:1003E000F894DEBF0FBECDBFCF91DF911F910F916B
:1003F000FF90EF900895CF93DF93EC018E819F8162
:10040000009711F00E94F5028C8160E00E94360492
:10041000DF91CF9108951F93CF93DF93EC01122FBB
:1004200079836883CB01880F991F860F971F9B8361
:100430008A834C831D821F821E822B871C861D8609
:100440001E861F8650E0FA01EA57FF4FE491F0E064
:10045000EE0FFF1FEE58FF4F25913491398B288BFB
:1004600046565F4FFA0144914A8B0E9458029F837F
:100470008E83009731F04A815B8160E070E00E94DA
:100480008D0010FF04C081E0888719860BC012FF21
:1004900006C081E0888782E089871A8605C01886B1
:1004A00081E0898782E08A87DF91CF911F9108954B
:1004B0000F931F93CF93DF93BC018230910510F40B
:1004C00062E070E0E0912401F0912501A0E0B0E04D
:1004D00040E050E024C08081918186179707D0F0DA
:1004E0008617970771F482819381109729F01396EC
:1004F0009C938E9312972CC0909325018093240196
:1005000027C04115510519F08417950718F4EF011C
:100510008D01AC01DF01828193819C01F90130974B
:10052000D1F641155105F9F0CA01861B970B8430AD
:10053000910580F48A819B810115110521F0F80154
:100540009383828304C09093250180932401FE014C
:10055000329645C0FE01E80FF91F6193719302972F
:10056000998388833CC08091220190912301892B3B
:1005700041F48091020190910301909323018093B3
:10058000220140910401509105014115510541F4AA
:100590004DB75EB78091000190910101481B590B46
:1005A000209122013091230124173507B0F4CA01AC
:1005B000821B930B8617970780F0AB014E5F5F4F4E
:1005C0008417950750F0420F531F50932301409317
:1005D0002201F9016193719302C0E0E0F0E0CF01E4
:1005E000DF91CF911F910F910895CF93DF939C01DD
:1005F000009709F48FC0EC0122971B821A82609148
:100600002401709125016115710581F4888199811A
:10061000820F931F2091220130912301281739075F
:1006200039F5D0932301C093220174C0DB0140E06F
:1006300050E0AC17BD0708F1BB83AA83FE012191EE
:100640003191E20FF31FAE17BF0779F48D919C91A2
:100650001197280F391F2E5F3F4F39832883129639
:100660008D919C9113979B838A834115510571F459
:10067000D0932501C09324014DC012968D919C9179
:100680001397AD01009711F0DC01D3CFDA01139677
:10069000DC93CE931297FA0121913191E20FF31F6F
:1006A000CE17DF0769F488819981280F391F2E5FE3
:1006B0003F4FFA01318320838A819B819383828318
:1006C000E0E0F0E0DB0112968D919C91139700978A
:1006D00019F0BC01FD01F6CFAB014E5F5F4FDB01AE
:1006E0008D919C91840F951F2091220130912301BF
:1006F0002817390779F4309729F4109225011092C0
:10070000240102C0138212824250504050932301B0
:1007100040932201DF91CF9108951F920F920FB65F
:100720000F9211242F933F938F939F93AF93BF9377
:1007300080911D0190911E01A0911F01B091200197
:10074000309121010196A11DB11D232F2D5F2D3761
:1007500020F02D570196A11DB11D209321018093FA
:100760001D0190931E01A0931F01B0932001809161
:10077000190190911A01A0911B01B0911C010196E1
:10078000A11DB11D8093190190931A01A0931B0123
:10079000B0931C01BF91AF919F918F913F912F9189
:1007A0000F900FBE0F901F9018959FB7F89420914F
:1007B000190130911A0140911B0150911C0186B51D
:1007C000A89B06C08F3F21F02F5F3F4F4F4F5F4FD9
:1007D0009FBF542F432F322F2227280F311D411D39
:1007E000511D82E0220F331F441F551F8A95D1F7F8
:1007F000B901CA010895789484B5826084BD84B536
:10080000816084BD85B5826085BD85B5816085BD0B
:10081000EEE6F0E0808181608083E1E8F0E0108224
:10082000808182608083808181608083E0E8F0E065
:10083000808181608083E1EBF0E08081846080834F
:10084000E0EBF0E0808181608083EAE7F0E0808186
:1008500084608083808182608083808181608083E6
:100860008081806880831092C1000895CF93DF93C8
:10087000482F50E0CA0186569F4FFC0134914A57D9
:100880005F4FFA018491882369F190E0880F991FE6
:10089000FC01E859FF4FA591B491FC01EE58FF4FC0
:1008A000C591D491662351F42FB7F8948C91932F6E
:1008B000909589238C93888189230BC0623061F4E1
:1008C0002FB7F8948C91932F909589238C938881DE
:1008D000832B88832FBF06C09FB7F8948C91832BFE
:1008E0008C939FBFDF91CF910895482F50E0CA01AC
:1008F00082559F4FFC012491CA0186569F4FFC01EF
:1009000094914A575F4FFA013491332309F440C060
:10091000222351F1233071F0243028F42130A1F04A
:10092000223011F514C02630B1F02730C1F0243048
:10093000D9F404C0809180008F7703C0809180003B
:100940008F7D8093800010C084B58F7702C084B5FE
:100950008F7D84BD09C08091B0008F7703C08091E6
:10096000B0008F7D8093B000E32FF0E0EE0FFF1F0B
:10097000EE58FF4FA591B4912FB7F894662321F458
:100980008C919095892302C08C91892B8C932FBFD9
:1009900008950895CF93DF930E94FB030E94C9043A
:1009A0000E94C700C0E0D0E00E94BB002097E1F3A6
:1009B0000E940000F9CFEE0FFF1F0590F491E02D8B
:1009C000099410E0C4ECD0E004C0FE010E94DD04F4
:0C09D0002296C63CD107C9F7F894FFCF6F
:0609DC008000260100006E
:00000001FF
